S0180000457870315F556E6974436F756E7465722E73726563CF
S11300000C942A000C9434000C9434000C943400A6
S11300100C9434000C9434000C9434000C9434008C
S11300200C9434000C9434000C9434000C9434007C
S11300300C9434000C9434000C9434000C9434006C
S11300400C9434000C9434000C9434000C9434005C
S11300500C94340011241FBECFE5D8E0DEBFCDBF21
S11300600E9436000C9466000C9400008FEF8ABB4B
S113007017BA11BA1BBA80E096B320B390FF12C02E
S11300808F3010F48F5F01C080E08BBB2FE936E81E
S113009091E0215030409040E1F700C00000B09959
S11300A0FECFEACF20FFE8CF882311F0815001C0B2
S11300B08FE08BBB2FE936E891E02150304090402F
S11300C0E1F700C000008099FECFD6CFF894FFCFAF
S9030000FC
