S021000038626974427574746F6E52696E67436F756E746572506F6C6C2E7372656309
S11300000C942A000C9434000C9434000C943400A6
S11300100C9434000C9434000C9434000C9434008C
S11300200C9434000C9434000C9434000C9434007C
S11300300C9434000C9434000C9434000C9434006C
S11300400C9434000C9434000C9434000C9434005C
S11300500C94340011241FBECFE5D8E0DEBFCDBF21
S11300600E9436000C9446000C9400008FEF8ABB6B
S113007011BA81E08BBB829BFECF803811F0880FD0
S113008001C081E08BBB8299FECFF5CFF894FFCFFE
S9030000FC
