S021000038626974427574746F6E52696E67436F756E746572506F6C6C2E7372656309
S11300000C942A000C9434000C9434000C943400A6
S11300100C9434000C9434000C9434000C9434008C
S11300200C9434000C9434000C9434000C9434007C
S11300300C9434000C9434000C9434000C9434006C
S11300400C9434000C9434000C9434000C9434005C
S11300500C94340011241FBECFE5D8E0DEBFCDBF21
S11300600E9436000C9448000C9400008FEF8ABB69
S113007011BA81E08BBB90B392FDFDCF803811F0B3
S1130080880F01C081E08BBB92FDF5CF90B3FCCF0C
S1070090F894FFCF0E
S9030000FC
