S0150000426C696E6B696E67204C4544532E7372656399
S11300000C942A000C9434000C9434000C943400A6
S11300100C9434000C9434000C9434000C9434008C
S11300200C9434000C9434000C9434000C9434007C
S11300300C9434000C9434000C9434000C9434006C
S11300400C9434000C9434000C9434000C9434005C
S11300500C94340011241FBECFE5D8E0DEBFCDBF21
S11300600E9436000C9446000C9400008FEF87BB6E
S113007081E088BB803811F0880F01C081E0E3E2A1
S1130080F4EF3197F1F700C00000F3CFF894FFCFFD
S9030000FC
