:100000000C942A000C9447000C9447000C94470071
:100010000C9447000C9447000C9447000C94470044
:100020000C9447000C9447000C9447000C94470034
:100030000C9447000C9447000C9447000C94470024
:100040000C9447000C9447000C9447000C94470014
:100050000C94470011241FBECFE5D8E0DEBFCDBF12
:1000600010E0A0E6B0E0ECEDF8E002C005900D92E3
:10007000AA36B107D9F720E0AAE6B0E001C01D9288
:10008000AF36B207E1F70E94D5020C946C040C94D1
:100090000000672B09F09FC0009711F4D8980895CD
:1000A0008130910511F4D99808958230910511F4A9
:1000B000DA9808958330910511F4DB98089584301F
:1000C000910511F4DC9808958530910511F4DD98BF
:1000D00008958630910511F4DE98089587309105D2
:1000E00011F4DF9808958A30910511F4C0980895AD
:1000F0008B30910511F4C19808958C30910511F45D
:10010000C29808958D30910511F4C39808958E30EA
:10011000910511F4C49808958F30910511F4C59894
:1001200008958031910511F4C698089581319105A3
:1001300011F4C79808958431910511F4A898089591
:100140008531910511F4A99808958631910511F42E
:10015000AA9808958731910511F4AB9808958831D4
:10016000910511F4AC9808958931910511F4AD9879
:1001700008958A31910511F4AE9808958B31910557
:1001800011F4AF9808958E31910511F49098089567
:100190008F31910511F4919808958032910511F4F1
:1001A000929808958132910511F4939808958232BE
:1001B000910511F4949808958332910511F495985E
:1001C00008958432910511F496980895859709F061
:1001D0009FC097980895009711F4D89A0895813098
:1001E000910511F4D99A08958230910511F4DA9AA3
:1001F00008958330910511F4DB9A089584309105B8
:1002000011F4DC9A08958530910511F4DD9A089572
:100210008630910511F4DE9A08958730910511F426
:10022000DF9A08958A30910511F4C09A08958B30B1
:10023000910511F4C19A08958C30910511F4C29A78
:1002400008958D30910511F4C39A08958E3091056B
:1002500011F4C49A08958F30910511F4C59A089548
:100260008031910511F4C69A08958131910511F4F8
:10027000C79A08958431910511F4A89A089585319B
:10028000910511F4A99A08958631910511F4AA9A5D
:1002900008958731910511F4AB9A0895883191053D
:1002A00011F4AC9A08958931910511F4AD9A08952D
:1002B0008A31910511F4AE9A08958B31910511F4AC
:1002C000AF9A08958E31910511F4909A08958F3167
:1002D000910511F4919A08958032910511F4929A42
:1002E00008958132910511F4939A0895823291050F
:1002F00011F4949A08958332910511F4959A089512
:100300008432910511F4969A0895859709F4979A85
:100310000895CF93C82F80FF07C061E070E082E2AC
:1003200090E00E94490006C060E070E082E290E048
:100330000E944900C1FF07C061E070E083E290E0E5
:100340000E94490006C060E070E083E290E00E94F5
:100350004900C2FF07C061E070E084E290E00E94C3
:10036000490006C060E070E084E290E00E9449002D
:10037000C3FF07C061E070E085E290E00E944900A1
:1003800006C060E070E085E290E00E944900CF91F5
:100390000895CF93C82F60E070E08AE190E00E945A
:1003A00049008C2F0E94890161E070E08BE190E0B0
:1003B0000E94490089EF90E00197F1F700C000002A
:1003C00060E070E08BE190E00E94490089EF90E0EE
:1003D0000197F1F700C00000CF910895CF93C62F89
:1003E000813059F480E8860F82958F700E94C90190
:1003F0008C2F8F700E94C9010CC0823051F480ECA8
:10040000860F82958F700E94C9018C2F8F700E9479
:10041000C901CF91089580E00E94890187E893E1A6
:100420000197F1F700C0000083E00E94C90181EE4E
:1004300094E00197F1F700C0000083E00E94C90139
:100440008DEB9AE00197F1F700C0000083E00E9475
:10045000C90182E00E94C90182E00E94C90188E0CE
:100460000E94C90180E00E94C9018CE00E94C9017C
:1004700080E00E94C90186E00E94C9010895CF93DF
:10048000C82F61E070E08AE190E00E9449008C2F63
:1004900082958F700E94890161E070E08BE190E0AD
:1004A0000E94490089EF90E00197F1F700C0000039
:1004B00060E070E08BE190E00E94490089EF90E0FD
:1004C0000197F1F700C000008C2F8F700E94890106
:1004D00061E070E08BE190E00E94490089EF90E0DC
:1004E0000197F1F700C0000060E070E08BE190E060
:1004F0000E94490089EF90E00197F1F700C00000E9
:10050000CF910895CF93DF93EC018881882331F058
:1005100021960E943F0289918111FBCFDF91CF91FB
:100520000895CF92DF92EF92FF920F931F93CF9394
:10053000DF936B017C01CAE6D0E00E9413030AE05E
:1005400010E0CB01B8010E944404805D88838EE2F4
:10055000898320E030E040E251E4C701B6010E9407
:10056000AF036B017C010E941303CB01B8010E9411
:100570004404805D8A8320E030E040E251E4C7011A
:10058000B6010E94AF030E941303CB01B8010E9481
:100590004404805D8B831C82DF91CF911F910F916A
:1005A000FF90EF90DF90CF900895CFEFC1BBC4BB19
:1005B0000E940B02C7BB83E287B984E886B960E07A
:1005C00081E00E94EE0180E690E00E948202369A6D
:1005D0003699FECF84B165B170E0660F771F660F64
:1005E000771F8295869586958370682B072E000C61
:1005F000880B990B0E944B0320E030E040E85BE35E
:100600000E94AF030E9491026AE081E00E94EE0125
:100610008AE690E00E94820283ED90E30197F1F771
:1006200000C00000D4CF0E941A036894B1110C944A
:10063000A90308950E948E0388F09F5798F0B92F60
:100640009927B751B0F0E1F0660F771F881F991F07
:100650001AF0BA95C9F714C0B13091F00E94A803FE
:10066000B1E008950C94A803672F782F8827B85F0E
:1006700039F0B93FCCF3869577956795B395D9F75F
:100680003EF490958095709561957F4F8F4F9F4F69
:100690000895E89409C097FB3EF490958095709575
:1006A00061957F4F8F4F9F4F9923A9F0F92F96E9BE
:1006B000BB279395F695879577956795B795F11133
:1006C000F8CFFAF4BB0F11F460FF1BC06F5F7F4FD0
:1006D0008F4F9F4F16C0882311F096E911C07723E2
:1006E00021F09EE8872F762F05C0662371F096E8EB
:1006F000862F70E060E02AF09A95660F771F881FBA
:10070000DAF7880F9695879597F9089557FD9058D1
:10071000440F551F59F05F3F71F04795880F97FBC5
:10072000991F61F09F3F79F087950895121613067F
:100730001406551FF2CF4695F1DF08C016161706AE
:100740001806991FF1CF86957105610508940895E3
:10075000E894BB2766277727CB0197F908950E9475
:10076000C2030C9433040E94250438F00E942C0428
:1007700020F0952311F00C941C040C9422041124F5
:100780000C94A9030E94860370F3959FC1F3950F03
:1007900050E0551F629FF001729FBB27F00DB11D05
:1007A000639FAA27F00DB11DAA1F649F6627B00D95
:1007B000A11D661F829F2227B00DA11D621F739F7E
:1007C000B00DA11D621F839FA00D611D221F749F8C
:1007D0003327A00D611D231F849F600D211D822FD3
:1007E000762F6A2F11249F5750409AF0F1F08823FA
:1007F0004AF0EE0FFF1FBB1F661F771F881F915027
:100800005040A9F79E3F510580F00C941C040C94B5
:10081000A9035F3FE4F3983ED4F3869577956795F7
:10082000B795F795E7959F5FC1F7FE2B880F911D50
:100830009695879597F9089597F99F6780E870E0F6
:1008400060E008959FEF80EC089500240A94161646
:10085000170618060906089500240A9412161306AE
:10086000140605060895092E0394000C11F488233C
:1008700052F0BB0F40F4BF2B11F460FF04C06F5F58
:100880007F4F8F4F9F4F089597FB072E16F40094CC
:1008900007D077FD09D00E94580407FC05D03EF42C
:1008A000909581959F4F0895709561957F4F08951C
:1008B000AA1BBB1B51E107C0AA1FBB1FA617B70786
:1008C00010F0A61BB70B881F991F5A95A9F78095A2
:0C08D0009095BC01CD010895F894FFCF75
:0A08DC00566F6C74616765203A00E6
:00000001FF
