:100000000C942A000C9434000C9434000C943400AA
:100010000C9434000C9434000C9434000C94340090
:100020000C9434000C9434000C9434000C94340080
:100030000C9434000C9434000C9434000C94340070
:100040000C9434000C9434000C9434000C94340060
:100050000C94340011241FBECFE5D8E0DEBFCDBF25
:100060000E9436000C9449000C9400008FE087BB7E
:1000700081E001C080E088BB2FE33DE093E02150A8
:1000800030409040E1F700C000008F5F803190F772
:06009000F2CFF894FFCF4F
:00000001FF
