:100000000C942A000C9434000C9434000C943400AA
:100010000C9434000C9434000C9434000C94340090
:100020000C9434000C9434000C9434000C94340080
:100030000C9434000C9434000C9434000C94340070
:100040000C9434000C9434000C9434000C94340060
:100050000C94340011241FBECFE5D8E0DEBFCDBF25
:100060000E9436000C9446000C9400001ABA8FE0EF
:1000700087BB80E0C89BFECF8F5F803108F080E0B7
:1000800088BBC89BF7CFC899FECFF4CFF894FFCFB9
:00000001FF
