:100000000C942A000C9449000C9447000C9447006F
:100010000C9447000C9447000C9447000C94470044
:100020000C9447000C9447000C9447000C94470034
:100030000C9447000C9447000C9447000C94470024
:100040000C9447000C9447000C9447000C94470014
:100050000C94470011241FBECFE5D8E0DEBFCDBF12
:1000600010E0A0E6B0E0E4EFF0E002C005900D92F1
:10007000A236B107D9F720E0A2E6B0E001C01D9298
:10008000A336B207E1F70E946C000C9478000C9440
:1000900000001F920F920FB60F9211248F9380B31E
:1000A000809362008091620082FD10C080916000A8
:1000B000803821F481E08093600005C08091600069
:1000C000880F80936000809160008BBB8F910F90B0
:1000D0000FBE0F901F9018958FEF8ABB11BA8091B9
:1000E00060008BBB81E085BF80E48BBF7894FFCF3D
:0400F000F894FFCFB2
:0200F400010009
:00000001FF
