S0110000446973706C617920562E73726563C7
S11300000C942A000C943F000C943F000C943F0085
S11300100C943F000C943F000C943F000C943F0060
S11300200C943F000C943F000C943F000C943F0050
S11300300C943F000C943F000C943F000C943F0040
S11300400C943F000C943F000C943F000C943F0030
S11300500C943F0011241FBECFE5D8E0DEBFCDBF16
S113006010E0A0E6B0E0E4EDF0E002C005900D92EF
S1130070AA36B107D9F70E9462000C9468000C9468
S1130080000042E350E028E630E090E88091680008
S11300908BBBE0E6F0E08191809582BBA9EFB0E0F4
S11300A01197F1F700C000008BB386958BBB8BB31F
S11300B0811101C09BBBE217F30769F74150510955
S11300C029F708958FEF8ABB81BB0E944100FDCFC1
S10700D0F894FFCFCE
S10D00D48282828282442810800098
S9030000FC
